:100000000C946D040C948E040C948E040C948E0449
:100010000C948E040C948E040C948E040C948E0418
:100020000C948E040C948E040C948E040C948E0408
:100030000C948E040C948E040C948E040C948E04F8
:100040000C948E040C9490040C948E040C948E04E6
:100050000C948E040C948E040C948E040C948E04D8
:100060000C948E040C948E040C948E040C948E04C8
:100070000C948E040C948E040C948E040C948E04B8
:100080000C948E040C948E040C948E040C948E04A8
:100090000C948E040C948E040C948E040C948E0498
:1000A0000C948E040C948E040C948E040C948E0488
:1000B0000C948E040C948E040C948E040C948E0478
:1000C0000C948E040C948E040C948E040C948E0468
:1000D0000C948E040C948E040C948E040C948E0458
:1000E0000C948E040C949E200C94F8190C94B72058
:1000F0000C9469220C945F1A0C9422220C94E91936
:100100000C9468180C94FE220C948B210C94C92238
:100110000C94D0210C94F41F0C94DB1D0C947F20C4
:100120000C9402220C9438240C9466200C94DC224B
:100130000C94B9230C940F230C9413240C942E23A9
:100140000C9482230C9415200C94B4210C94DC2381
:100150000C944C220C94A3220C94D0200C94822456
:100160000C9431200C945D240C94C0160C94B9248A
:100170000C944A230C94F1180C944A200C94B62247
:100180000C94761A0C94ED220C9489220C94691923
:100190000C94A81B0D0A3D3D3D3D3D3D3D3D3D3D83
:1001A0003D3D3D3D3D3D3D3D3D3D3D3D3D3D3D3D7F
:1001B0003D3D3D3D3D3D3D3D3D3D3D3D3D3D3D3D6F
:1001C0003D3D3D3D3D3D3D3D3D3D3D3D3D3D3D3D5F
:1001D0003D3D3D3D3D3D3D3D3D3D3D3D3D3D3D3D4F
:1001E0003D3D3D3D0D0A000D0A6578747261666CF7
:1001F0006167733A20000D0A6D63617573653A207B
:10020000000D0A6D7476616C3A20000D0A6D657000
:10021000633A20000D0A6D69703A20000D0A6D697D
:10022000653A20000D0A6D747665633A20000D0A68
:100230006D736372617463683A20000D0A74696DAE
:1002400065726D61746368683A20000D0A74696DA7
:1002500065726D617463686C3A20000D0A74696D93
:100260006572683A20000D0A74696D65726C3A20F7
:10027000000D0A6379636C65683A20000D0A6379A2
:10028000636C656C3A20000D0A6D7374617475734C
:100290003A200070633A20000D0A00200020002060
:1002A0000044756D70696E6720656D756C61746F63
:1002B000722073746174653A0D0A526567697374CC
:1002C000657273207830202D207833313A0D0A0082
:1002D0003D3D3D3D3D3D3D3D3D3D3D3D3D3D3D3D4E
:1002E0003D3D3D3D3D3D3D3D3D3D3D3D3D3D3D3D3E
:1002F0003D3D3D3D3D3D3D3D3D3D3D3D3D3D3D3D2E
:100300003D3D3D3D3D3D3D3D3D3D3D3D3D3D3D3D1D
:100310003D3D3D3D3D3D3D3D3D3D3D3D3D3D0D0A70
:100320000063616368655F726561643A2066616954
:100330006C65642031302074696D657320696E20AE
:100340006120726F772E2048616C74696E670D0AA8
:1003500000206572726F722C206572726F72207449
:100360006F6B656E3A0D0A0063616368655F726565
:1003700061642040200063616368655F777269741F
:10038000653A206661696C65642031302074696D5E
:10039000657320696E206120726F772E2048616C32
:1003A00074696E670D0A00206572726F722C206589
:1003B00072726F7220746F6B656E3A0D0A00636122
:1003C0006368655F777269746520402000290D0AB3
:1003D0000044454255472050415353454420494E1F
:1003E00056414C4944205054522028000D0A0055D3
:1003F0006E6B6E6F776E206661696C7572650D0A43
:1004000000504F5745524F46460D0A004231206971
:10041000732073657420746F20484947482C206509
:100420006D756C61746F7220726573756D650D0A00
:100430000044756D7020636F6D706C657465642E1B
:1004400020456D756C61746F722077696C6C2063E8
:100450006F6E74696E7565207768656E2042312015
:10046000697320736574206261636B20746F204828
:100470004947480D0A000D0A002F003B20646361C4
:10048000636865206869742F6D6973733A20002F63
:1004900000696361636865206869742F6D697373AF
:1004A0003A20002062797465730D0A0043757272F8
:1004B000656E74204156522066726565206D656DCB
:1004C0006F72793A20000D0A006D732C20646379F5
:1004D000636C653D0020487A2C206474696D653D2D
:1004E0000045666665637469766520656D756C6147
:1004F0007465642073706565643A200020627974C5
:1005000065730D0A0043757272656E742041565210
:100510002066726565206D656D6F72793A200053B3
:1005200044206361726420696E697469616C697AE0
:100530006564207375636365737366756C6C79218C
:100540000D0A004572726F7220696E697469616C80
:10055000697A61696E6720534420636172640D0A91
:100560000061727633322D6F70743A206D696E6956
:100570002D72763332696D61206F6E204172647521
:10058000696E6F20554E4F0D0A00696E69745F6386
:10059000616368653A206661696C6564203130206A
:1005A00074696D657320696E206120726F772E20EB
:1005B00048616C74696E670D0A00206572726F7213
:1005C0002C206572726F7220746F6B656E3A0D0A23
:1005D00000696E69745F6361636865202300094583
:1005E00072726F720D0A00094343204572726F7276
:1005F0000D0A000943617264204543432066616926
:100600006C65640D0A000944617461206F75742083
:100610006F662072616E67650D0A00094E6F742067
:100620004572726F7220746F6B656E0D0A000D0A51
:10063000000D0A000D0A00094465766963652053C0
:10064000697A653A20000D0A00095452414E5F5301
:10065000504545443A20000D0A00094E5341433AA3
:1006600020000D0A0009544141433A20000D0A00C0
:1006700009435344205374727563747572653A204C
:10068000004353443A0D0A000D0A00094563686FA0
:100690003A20004E4F5420444546494E45440D0AE9
:1006A0000052455345525645440D0A0052455345A4
:1006B000525645440D0A004C4F5720564F4C54415A
:1006C00047450D0A00322E372D332E36560D0A00BF
:1006D00009566F6C7461676520416363657074656A
:1006E000643A20000D0A0009436F6D6D616E64204D
:1006F00056657273696F6E3A20000D0A00332E350D
:100700002D332E3600332E342D332E352C2000334E
:100710002E332D332E342C2000332E322D332E3316
:100720002C2000332E312D332E322C2000332E304E
:100730002D332E312C2000322E392D332E302C200B
:1007400000322E382D322E392C2000322E372D3209
:100750002E382C2000095644442057696E646F7768
:100760003A2000425553590D0A00300D0A00310D50
:100770000A0009434353205374617475733A20008F
:1007800052454144590D0A00094361726420506F7B
:10079000776572205570205374617475733A200028
:1007A0000943617264204C6F636B65640D0A000934
:1007B000575020457261736520536B69700D0A00B4
:1007C000094572726F720D0A000943432045727227
:1007D0006F720D0A0009454343204661696C6564E8
:1007E0000D0A000957502056696F6C6174696F6E6D
:1007F0000D0A0009457261736520506172616D6573
:100800007465720D0A00094F7574206F662052617D
:100810006E67650D0A00094E6F20523220457272D4
:100820006F720D0A0009496E2049646C652053748B
:100830006174650D0A000945726173652052657324
:100840006574204572726F720D0A0009496C6C65FF
:1008500067616C20436F6D6D616E640D0A00094322
:100860005243204572726F720D0A0009457261731E
:10087000652053657175656E6365204572726F7290
:100880000D0A000941646472657373204572726FCA
:10089000720D0A0009506172616D657465722045C0
:1008A00072726F720D0A00094361726420526561B1
:1008B00064790D0A00094572726F723A204D5342F5
:1008C000203D20310D0A00094E6F20726573706F54
:1008D0006E73650D0A003078000011241FBECFEF43
:1008E000D1E2DEBFCDBF00E00CBF12E0A0E0B2E07D
:1008F000E0EEF4E500E00BBF02C007900D92AC31D2
:10090000B107D9F728E0ACE1B2E001C01D92A136F1
:10091000B207E1F70E9447140C94C9290C94000017
:100920001F921FB61F9211248F939F93AF93BF9373
:100930008091200290912102A0912202B091230285
:100940000196A11DB11D8093200290932102A093D6
:100950002202B0932302BF91AF919F918F911F907C
:100960001FBE1F901895F89460912002709121028B
:100970008091220290912302789408956F927F9241
:100980008F929F92AF92BF92CF92DF92EF92FF929F
:100990000F931F93CF93DF930F92CDB7DEB7882EBF
:1009A000942EE52EF62E072F3901A82EB12C27E024
:1009B00032E0829EC001839E900D11249C01285C30
:1009C0003D4F69011AE009C03FEF81EE94E03150DC
:1009D00080409040E1F700C000009E012F5F3F4F34
:1009E000A601692D7E2D8F2D902F0E94630DE98128
:1009F000E031C0F41A9541F781ED95E00E9485122F
:100A0000682D70E080E090E00E949C128AEB95E0F7
:100A10000E94851289810E9407128AE895E00E944F
:100A20008512FFCF27E032E0A29EC001A39E900D69
:100A3000B29E900D1124FC01E85CFB4F9082E18294
:100A4000F2820383FC01E45CFB4F60827182825C72
:100A50009B4FFC0110820F90DF91CF911F910F915E
:100A6000FF90EF90DF90CF90BF90AF909F908F90CE
:100A70007F906F90089527E032E0829FF001839F7E
:100A8000F00D1124E45CFB4F8081918170E09B01AB
:100A9000209530952817390720F0860F971F9183EE
:100AA00080830895CF93DF9380ED92E00E948512BA
:100AB00081EA92E00E948512C0E0D0E0E0914D080A
:100AC000F0914E08CE01880F991F880F991FE80FEB
:100AD000F91F60817181828193810E949C128FE94C
:100AE00092E00E948512E0914D08F0914E08CE01EF
:100AF0000196880F991F880F991FE80FF91F6081D1
:100B00007181828193810E949C128DE992E00E9402
:100B10008512E0914D08F0914E08CE010296880FA3
:100B2000991F880F991FE80FF91F608171818281D9
:100B300093810E949C128BE992E00E948512E091C1
:100B40004D08F0914E08CE010396880F991F880F2B
:100B5000991FE80FF91F60817181828193810E9442
:100B60009C1288E992E00E9485122496C032D10539
:100B700009F0A4CF83E992E00E948512E0914D082C
:100B8000F0914E08E058FF4F60817181828193811E
:100B90000E949C1287E892E00E948512E0914D0825
:100BA000F0914E08EC57FF4F6081718182819381F3
:100BB0000E949C128CE792E00E948512E0914D0801
:100BC000F0914E08E857FF4F6081718182819381D7
:100BD0000E949C1281E792E00E948512E0914D08EC
:100BE000F0914E08E457FF4F6081718182819381BB
:100BF0000E949C1286E692E00E948512E0914D08C8
:100C0000F0914E08E057FF4F60817181828193819E
:100C10000E949C128BE592E00E948512E0914D08A3
:100C2000F0914E08EC56FF4F608171818281938173
:100C30000E949C128BE492E00E948512E0914D0884
:100C4000F0914E08E856FF4F608171818281938157
:100C50000E949C128BE392E00E948512E0914D0865
:100C6000F0914E08E456FF4F60817181828193813B
:100C70000E949C128EE292E00E948512E0914D0843
:100C8000F0914E08E056FF4F60817181828193811F
:100C90000E949C1284E292E00E948512E0914D082D
:100CA000F0914E08EC55FF4F6081718182819381F4
:100CB0000E949C128CE192E00E948512E0914D0806
:100CC000F0914E08E855FF4F6081718182819381D8
:100CD0000E949C1284E192E00E948512E0914D08EE
:100CE000F0914E08E455FF4F6081718182819381BC
:100CF0000E949C128BE092E00E948512E0914D08C8
:100D0000F0914E08E055FF4F60817181828193819F
:100D10000E949C1281E092E00E948512E0914D08B1
:100D2000F0914E08EC54FF4F608171818281938174
:100D30000E949C1286EF91E00E948512E0914D087E
:100D4000F0914E08E854FF4F608171818281938158
:100D50000E949C1287EE91E00E948512E0914D085E
:100D6000F0914E08E454FF4F60817181828193813C
:100D70000E949C1284E991E0DF91CF910C9485123E
:100D80004F925F926F927F928F929F92AF92BF929B
:100D9000CF92DF92EF92FF920F931F93CF93DF9347
:100DA0000F92CDB7DEB7382F292FCB01A32FB22F4B
:100DB000B42E40FD0DC1BC01CD0139E0969587955B
:100DC000779567953A95D1F76093590870935A08CB
:100DD00080935B0890935C08009146081091470847
:100DE0002091480830914908061717072807390746
:100DF00009F4FDC000913F06109140062091410684
:100E000030914206061717072807390709F4B5C0BD
:100E1000009138041091390420913A0430913B0438
:100E2000061717072807390709F419C140913C0430
:100E300050913D042091430630914406E2E0BE16F5
:100E400008F4F4C04F3F5F4F09F4EAC02F3F3F4F13
:100E500009F48DC110924B0810924A080EE014E07C
:100E6000B2E0CB2ED12C22E0A22E085C1D4F27E051
:100E700032E0C29EF001C39EF00DD29EF00D11240F
:100E8000E25CFB4F2081213009F4F0C0FE01319675
:100E90007F0147E052E0C49E9001C59E300DD49E74
:100EA000300D1124A901485C5D4F285C3B4FF901CE
:100EB0006083718382839383F2E0BF1608F41EC1BE
:100EC00027E032E0C29EF001C39EF00DD29EF00DED
:100ED0001124E45CFB4F2FEF3FEF318320834090E0
:100EE00030025090310260903202709033022FEF46
:100EF000421A520A620A720A409230025092310239
:100F000060923202709233024AE0D42E11C02FEF69
:100F100031EE44E0215030404040E1F700C0000095
:100F20006091590870915A0880915B0890915C0813
:100F30009701A8010E94630D89818031B0F5DA9490
:100F400031F788E693E00E9485126091590870910C
:100F50005A0880915B0890915C080E949C1281E580
:100F600093E00E94851289810E9407120E94520517
:100F700081E293E00E948512FFCFAA24A39482E02D
:100F8000B816D0F18091340290913502A0913602CA
:100F9000B09137020196A11DB11D80933402909348
:100FA0003502A0933602B09337028A2D0F90DF915D
:100FB000CF911F910F91FF90EF90DF90CF90BF9056
:100FC000AF909F908F907F906F905F904F9008951B
:100FD0008091590890915A08A0915B08B0915C08E3
:100FE000BC01CD016F5F7F4F8F4F9F4FEDCE32E041
:100FF000A32E82E0B81630F680912C0290912D023B
:10100000A0912E02B0912F020196A11DB11D8093D7
:101010002C0290932D02A0932E02B0932F02C5CFE5
:1010200010923D0410923C0440E050E0E0914A08E8
:10103000F0914B082E173F0708F07BC007E012E045
:10104000CC24C394D12CAA24A3944217530708F0AC
:101050000CCF08E312E0C12CD12CA12C08CFA12C7D
:101060008ECF0FE314E0CC24C394D12C5AE0752E1C
:101070009E012F5F3F4F790127E032E0C29EC00101
:10108000C39E900DD29E900D1124FC01E85CFB4F95
:101090004F0109C0FFEF21EE34E0F1502040304015
:1010A000E1F700C00000F4016081718182819381C9
:1010B0009701A8010E94D40D8981853009F442C0AE
:1010C000803108F03FC07A9429F78EEB93E00E94BC
:1010D0008512F40160817181828193810E949C124A
:1010E00087EA93E00E94851289810E9407120E947C
:1010F000520586E793E00E948512FFCF4C5F5D4F5B
:10110000FA011182108240902802509029026090CA
:101110002A0270902B02FFEF4F1A5F0A6F0A7F0AB4
:10112000409228025092290260922A0270922B0269
:10113000EBCE9F010EE014E0F2E0CF2ED12CA2E026
:10114000AA2E83CF87E092E0C89EF001C99EF00DE1
:10115000D89EF00D1124E25CFB4F1082609159087B
:1011600070915A0880915B0890915C0892CE109221
:1011700044061092430620914A0830914B08232BD5
:1011800009F46CCEA0904506F1E0AF1609F469CFE2
:1011900060933F0670934006809341069093420609
:1011A0000FE314E0CC24C394D12CAA24A394FE0111
:1011B00031967F0185CE8F929F92AF92BF92CF9250
:1011C000DF92EF92FF920F931F93CF93DF9300D0A4
:1011D0000F92CDB7DEB76B017C018B01117040E03F
:1011E000C701B6010E94C0060D3F21E01207A8F515
:1011F00047E052E0849F9001859F300D1124020F3B
:10120000131FF801E85CFD4F508141819281838179
:1012100059834A839B838C83F901E45CFB4F808173
:1012200091818E3F2FEF920718F40296918380836D
:1012300069817A818B819C810F900F900F900F9024
:10124000DF91CF911F910F91FF90EF90DF90CF90A2
:10125000BF90AF909F908F90089520E032E05901A9
:10126000A01AB10A97E0892E92E0992E889DB001CC
:10127000899D700D1124600F711F685C7D4FA50161
:10128000CE0101960E94B92941E0C701B6010E9432
:10129000C006A8014C5F5140889D8001899D100DBA
:1012A0001124085C1D4FB80181E090E08C0F9D1F58
:1012B0008A0D9B1D0E94B929F801EC5FFD4F8081CA
:1012C00091818E3F2FEF920708F0B2CF0296918363
:1012D0008083AECF4F925F926F927F929F92AF9238
:1012E000BF92CF92DF92EF92FF920F931F93CF9313
:1012F000DF9300D00F92CDB7DEB72B013C012983DD
:101300003A834B835C838B01117040E0C301B201CF
:101310000E94C006282F39810D3F81E01807A8F5EB
:1013200047E052E0249FC001259F900D1124885C66
:101330009D4FFC01E00FF11F30832A8121832B8117
:1013400022832C812383FC01EA5FFD4F21E020836F
:101350003297808191818F3F980719F00196918390
:1013600080830F900F900F900F90DF91CF911F917E
:101370000F91FF90EF90DF90CF90BF90AF909F9034
:101380007F906F905F904F90089580E092E07C0195
:10139000E01AF10A87E0A82E82E0B82E2A9D6001AB
:1013A0002B9DD00C1124C601800F911FA701BE01F7
:1013B0006F5F7F4F885C9D4F0E94B929F601E25C08
:1013C000FB4F99249394908241E0C301B2010E94A3
:1013D000C0068A9D90018B9D300D1124C901885C47
:1013E0009D4F6C01A8014C5F514061E070E06C0FB3
:1013F0007D1F6E0D7F1D0E94B929F601EA5FFD4F2A
:1014000090823297808191818F3F980709F4A9CF0C
:10141000019691838083A5CF3F924F925F926F9206
:101420007F928F929F92AF92BF92CF92DF92EF9274
:10143000FF920F931F93CF93DF930F92CDB7DEB739
:101440002B013C018B011170C301B20129E096957B
:101450008795779567952A95D1F76093590870938A
:101460005A0880935B0890935C08C0904608D0901F
:101470004708E0904808F09049086C157D058E05F6
:101480009F0509F4FEC0C0903F06D0904006E09052
:101490004106F09042066C157D058E059F0509F406
:1014A000A4C0C0903804D0903904E0903A04F09081
:1014B0003B046C157D058E059F0509F4FBC040912A
:1014C0004A0850914B082091430630914406E7E0CA
:1014D000F2E0EE24E394F12C2417350708F0DCC089
:1014E00040913C0450913D044217530708F4CDC08D
:1014F0009F01285C3D4F590147E052E0E49E900176
:10150000E59E300DF49E300D1124A901485C5D4F1D
:10151000225C3B4FF9012081213009F4CEC09E01AD
:101520002F5F3F4F690147E052E0E49E9001E59E46
:10153000300DF49E300D1124F901E85CFB4F6083FF
:10154000718382839383245C3B4FF9011182108263
:10155000209128023091290240912A0250912B02B9
:101560002F5F3F4F4F4F5F4F209328023093290248
:1015700040932A0250932B023AE0932E11C0FFEFC2
:1015800021EE34E0F15020403040E1F700C000008F
:101590006091590870915A0880915B0890915C089D
:1015A0009601A5010E94630D89818031A0F59A946E
:1015B00031F788E693E00E94851260915908709196
:1015C0005A0880915B0890915C080E949C1281E50A
:1015D00093E00E94851289810E9407120E945205A1
:1015E00081E293E00E948512FFCFEE24E394F12C78
:1015F00080912C0290912D02A0912E02B0912F0289
:101600000196A11DB11D80932C0290932D02A093F1
:101610002E02B0932F020F3F81E0180709F489C012
:1016200027E032E0E29EC001E39E900DF29E900D15
:101630001124080F191FF801E85CFD4F218110816A
:10164000FC01E45CFB4F808191818E3F3FEF93076B
:1016500018F4029691838083922F812F0F90DF914F
:10166000CF911F910F91FF90EF90DF90CF90BF909F
:10167000AF909F908F907F906F905F904F903F9032
:10168000089522E0E22EF12CB3CFE8E3AE2EE2E0A3
:10169000BE2EE12CF12C30CF9A01EEE0F4E0B2E066
:1016A000EB2EF12C40913C0450913D04421753071E
:1016B00060F31ECFE12CF12C9BCF6AE0362ECE01D9
:1016C00001966C015E5F4A0109C0FFEF21EE34E034
:1016D000F15020403040E1F700C00000F40160818B
:1016E0007181828193819601A5010E94D40D898127
:1016F000853009F447C0803108F044C03A9429F796
:101700008EEB93E00E948512F401608171818281E9
:1017100093810E949C1287EA93E00E94851289813E
:101720000E9407120E94520586E793E00E948512EC
:10173000FFCF87E0C82E82E0D82EEC9CF001ED9C14
:10174000F00DFC9CF00D1124E95CFB4F108141E091
:10175000C301B2010E94C0068C9DF0018D9DF00D69
:101760001124E85CFD4F9081EC5FFD4F20813181B9
:101770002E3F8FEF380708F070CF2E5F3F4F318339
:1017800020836BCF87E092E0E89EF001E99EF00DA8
:10179000F89EF00D1124E25CFB4F10826091590815
:1017A00070915A0880915B0890915C08BCCECF93F1
:1017B0002A9A8FE39CE90197F1F700C000008FEFB0
:1017C0000E943A122A9AC0E58FEF0E943A12CA95F7
:1017D000D9F7CF910895FF920F931F93CF93DF9383
:1017E000D42F152F062FF72EC22F80640E943A1295
:1017F0008F2D0E943A12802F0E943A12812F0E9450
:101800003A128D2F0E943A128C2F8160DF91CF9176
:101810001F910F91FF900C943A12CF93C9E08FEF74
:101820000E943A128F3F11F4CA95C9F7CF910895DB
:101830000F931F93CF938C01C9E08FEF0E943A1250
:101840008F3F11F4CA95C9F7F80180838FEF0E948A
:101850003A12F8018183CF911F910F910895EF9271
:10186000FF920F931F93CF93DF938C01C9E08FEF0B
:101870000E943A128F3F59F4CA95C9F7F801808344
:10188000DF91CF911F910F91FF90EF900895F80194
:1018900080838230A8F7E80121960B5F1F4F7E01FD
:1018A00021968FEF0E943A12F70180830C171D07D3
:1018B000B1F7DF91CF911F910F91FF90EF900895B5
:1018C000EF92FF920F931F93CF93DF938C01C9E0A8
:1018D0008FEF0E943A128F3F59F4CA95C9F7F80169
:1018E0008083DF91CF911F910F91FF90EF9008952A
:1018F000F80180838230A8F7E80121960B5F1F4F23
:101900007E0121968FEF0E943A12F70180830C1717
:101910001D07B1F7DF91CF911F910F91FF90EF90CD
:101920000895EF92FF920F931F93CF93DF93EC01F3
:10193000EE24EA94E60E611581F0F12C8FEFE81A9F
:10194000F80AEC0EFD1E8E0121968FEF0E943A12CE
:10195000F8018083CE15DF05B1F7DF91CF911F919C
:101960000F91FF90EF900895CF93DF938FEF0E9438
:101970003A122A988FEF0E943A1280E40E943A129B
:1019800080E00E943A1280E00E943A1280E00E94B9
:101990003A1280E00E943A1285E90E943A12D9E098
:1019A0008FEF0E943A12C82F8F3F11F4DA95C1F7DA
:1019B0008FEF0E943A122A9A8FEF0E943A128C2FD0
:1019C000DF91CF910895EF92FF920F931F93CF93E2
:1019D000DF938C018FEF0E943A122A988FEF0E94BA
:1019E0003A1288E40E943A1280E00E943A1280E0A3
:1019F0000E943A1281E00E943A128AEA0E943A1248
:101A000087E80E943A12C9E08FEF0E943A128F3F96
:101A100089F4CA95C9F7F80180838FEF0E943A12C2
:101A20002A9A8FEFDF91CF911F910F91FF90EF9046
:101A30000C943A12F8018083E80121960B5F1F4F46
:101A4000823058F77E0121968FEF0E943A12F701FB
:101A500080830C171D07B1F7E0CF0F931F93CF932F
:101A60008C018FEF0E943A122A988FEF0E943A124F
:101A70008DE40E943A1280E00E943A1280E00E94B7
:101A80003A1280E00E943A1280E00E943A1281E00D
:101A90000E943A12C9E08FEF0E943A128F3F11F470
:101AA000CA95C9F7F80180838FEF0E943A12F801B6
:101AB00081838FEF0E943A122A9A8FEFCF911F9164
:101AC0000F910C943A12AF92BF92CF92DF92EF92A5
:101AD000FF920F931F93CF93DF93162F072FF82EAC
:101AE000E92EEA0169018FEFF90180830E943A1221
:101AF0002A988FEF0E943A1281E50E943A128E2DA9
:101B00000E943A128F2D0E943A12802F0E943A12A0
:101B1000812F0E943A1281E00E943A1219E08FEF61
:101B20000E943A12E82EFFEF8F1315C01A95B9F7ED
:101B30008FEF0E943A122A9A8FEF0E943A128E2D4E
:101B4000DF91CF911F910F91FF90EF90DF90CF9099
:101B5000BF90AF90089503E41FE00150104009F1D9
:101B60008FEF0E943A12F82E8FEFF816B1F3EEEFD6
:101B7000FE1619F0F601F082DBCF5E01FEEFBF1A10
:101B80008E0121968FEF0E943A12F8018083CA15C8
:101B9000DB05B1F78FEF0E943A128FEF0E943A12E5
:101BA000E9CFFF24FA94E6CFBF92CF92DF92EF9273
:101BB000FF920F931F93CF93DF93EB01182F092F01
:101BC000B42EE52E69018FEFF90180830E943A124D
:101BD0002A988FEF0E943A1288E50E943A12802FCD
:101BE0000E943A12812F0E943A128D2F0E943A12BF
:101BF0008C2F0E943A1281E00E943A12C9E08FEFC6
:101C00000E943A12F82EFFEF8F1314C0CA95B9F74D
:101C10008FEF0E943A122A9A8FEF0E943A128F2D6C
:101C2000DF91CF911F910F91FF90EF90DF90CF90B8
:101C3000BF9008958111ECCF8EEF0E943A12CB2D08
:101C4000DE2D8E011E5F89910E943A120C171D072E
:101C5000D1F7C3E4DFE02197D9F28FEF0E943A1267
:101C60008F3FC9F38F71853021F08FEFF6018083AC
:101C7000CFCFF6018083C3E4DFE002C0219731F0CB
:101C80008FEF0E943A128115C9F3C2CFF60110827C
:101C9000F12CBECFEF92FF920F931F93CF93DF9360
:101CA0007C018FEF0E943A122A988FEF0E943A121D
:101CB0008F3FD9F78AE70E943A1280E00E943A12D9
:101CC00080E00E943A1280E00E943A1280E00E9476
:101CD0003A1281E00E943A12C9E08FEF0E943A1254
:101CE0008F3F89F4CA95C9F7F70180838FEF0E946F
:101CF0003A122A9A8FEFDF91CF911F910F91FF90A7
:101D0000EF900C943A12F7018083E7012196F5E0F9
:101D1000EF0EF11C823050F78E0121968FEF0E945A
:101D20003A12F8018083EC16FD06B1F7DFCFCF93AE
:101D3000DF938FEF0E943A122A988FEF0E943A1297
:101D400087E70E943A1280E00E943A1280E00E94E7
:101D50003A1280E00E943A1280E00E943A1281E03A
:101D60000E943A12D9E08FEF0E943A12C82F8F3F9B
:101D700011F4DA95C1F78FEF0E943A122A9A8FEF89
:101D80000E943A128C2FDF91CF910895CF93DF9369
:101D90008FEF0E943A122A988FEF0E943A1289E63A
:101DA0000E943A1280E40E943A1280E00E943A12A5
:101DB00080E00E943A1280E00E943A1281E00E9484
:101DC0003A12D9E08FEF0E943A12C82F8F3F11F4D8
:101DD000DA95C1F78FEF0E943A122A9A8FEF0E948C
:101DE0003A128C2FDF91CF910895AF92BF92CF928C
:101DF000DF92EF92FF920F931F93CF93DF9300D068
:101E00000F920F92CDB7DEB72A9A8FE39CE9019724
:101E1000F1F700C000008FEF0E943A122A9A10E5F5
:101E20008FEF0E943A121A95D9F70FEF03C00A9567
:101E300009F466C00E94B40C89838130C1F7EFE9D0
:101E4000FFE03197F1F700C000008FEF0E943A12D7
:101E50002A988FEF0E943A1288E40E943A1280E09A
:101E60000E943A1280E00E943A1281E00E943A12E7
:101E70008AEA0E943A1287E80E943A1209E08FEF3C
:101E80000E943A128F3F09F04DC00A95C1F789832D
:101E90008FEF0E943A122A9A8FEF0E943A1289819C
:101EA000813071F58D818A3A59F509C0EFE9FFE07B
:101EB0003197F1F700C000001150113009F10E9474
:101EC000970E8983823090F70E94C60E082F89836F
:101ED0008FE99FE00197F1F700C000001150011158
:101EE000ECCF8FE99FE00197F1F700C00000CE0131
:101EF00001960E944A0E80E090E10E94321201C0D9
:101F000001E0802F0F900F900F900F900F90DF91B6
:101F1000CF911F910F91FF90EF90DF90CF90BF90E6
:101F2000AF9008958983823008F0B2CF7E01F2E04D
:101F3000EF0EF11CCE0106965C0167019FEFE91AD6
:101F4000F90A8FEF0E943A12F6018083EA14FB042B
:101F5000A1F79ECFCF93C82F8F3F09F447C02CF431
:101F600085EB98E0CF910C9485128115D1F186FD17
:101F700013C0C5FD17C0C4FD1BC0C3FD1FC0C2FDFB
:101F800023C0C1FD27C0C0FD02C0CF91089585E2E6
:101F900098E0CF910C94851284E998E00E94851214
:101FA000C5FFE9CF83E898E00E948512C4FFE5CF22
:101FB0008BE698E00E948512C3FFE1CF8EE598E0A2
:101FC0000E948512C2FFDDCF8BE498E00E9485124B
:101FD000C1FFD9CF86E398E00E948512C0FFD5CF1C
:101FE000D6CF87EA98E0CF910C94851287EC98E0E1
:101FF000CF910C948512CF93DF93EC0188810E94DE
:10200000AA0F88818F3F99F08981811599F087FD0A
:1020100018C086FD1DC085FD22C084FD27C083FD3C
:102020002CC082FD31C081FD36C080FD3BC0DF91F8
:10203000CF91089586E198E00E948512898187FFFB
:10204000E8CF86E098E00E948512898186FFE3CF81
:1020500083EF97E00E948512898185FFDECF83EEB2
:1020600097E00E948512898184FFD9CF85ED97E0A2
:102070000E948512898183FFD4CF89EC97E00E946A
:102080008512898182FFCFCF80EC97E00E94851274
:10209000898181FFCACF8FEA97E00E9485128981EA
:1020A00080FFC5CF80EA97E0DF91CF910C94851235
:1020B000CF93DF93EC0188810E94AA0F8881823040
:1020C00018F0DF91CF91089588E897E00E9485127B
:1020D000898186FD22C083E697E00E94851285E50E
:1020E00097E00E9485128B8187FD5FC08A8180FD09
:1020F00056C081FD4EC082FD31C083FD36C084FDD7
:102100003BC085FD40C086FD18C087FD1DC08AEF1D
:1021100096E0DF91CF910C94851280E897E00E94C1
:10212000851282E797E00E948512898186FF42C06E
:102130008EE697E00E948512D2CF85E097E00E945C
:1021400085128A8187FFE3CF8DEF96E00E9485128A
:102150008AEF96E0DF91CF910C9485128DE297E0A3
:102160000E9485128A8183FFCACF83E297E00E9492
:1021700085128A8184FFC5CF89E197E00E9485128C
:102180008A8185FFC0CF8FE097E00E9485128A8107
:10219000BACF87E397E00E9485128A81ACCF81E4B1
:1021A00097E00E9485128A81A4CF8BE497E00E9479
:1021B00085129CCF8AE697E00E94851290CF0F93FC
:1021C0001F93CF938C01FC01C081CF3F09F485C0E0
:1021D00064F485EB98E00E948512F80180818230DA
:1021E000E8F0CF911F910F910895C11509F470C0C7
:1021F000C6FD44C0C5FD48C0C4FD4CC0C3FD50C0B1
:10220000C2FD54C0C1FD58C0C0FFE7CF85E298E0D1
:102210000E948512F8018081823018F787EE96E0DF
:102220000E94851280E00E94611284EE96E00E9476
:10223000851280ED96E00E948512F80183818F71EE
:10224000813009F44FC0823009F451C0843009F460
:1022500053C08830C1F183E996E00E9485128BE873
:1022600096E00E948512F80184810E94611288E83C
:1022700096E0CF911F910F910C94851284E998E01C
:102280000E948512C5FFB8CF83E898E00E948512AE
:10229000C4FFB4CF8BE698E00E948512C3FFB0CF95
:1022A0008EE598E00E948512C2FFACCF8BE498E0E7
:1022B0000E948512C1FFA8CF86E398E00E94851294
:1022C000C0FF8BCFA3CF81EA96E00E948512C7CFD3
:1022D00087EA98E00E94851280CF87EC98E00E9400
:1022E00085127BCF85EC96E00E948512B8CF87EBF4
:1022F00096E00E948512B3CF8CEA96E00E94851288
:10230000AECFCF93DF93EC0181E896E00E94851277
:1023100080E796E00E948512888182958695869551
:1023200083700E9461128DE696E00E94851285E618
:1023300096E00E94851289810E94611282E696E0F1
:102340000E9485128AE596E00E9485128A810E9489
:10235000611287E596E00E94851289E496E00E946A
:1023600085128B810E94611286E496E00E9485129C
:1023700087E396E00E9485128F818F730E9461121D
:1023800088850E94611289850E94611284E396E02B
:10239000DF91CF910C948512CF92DF92EF92FF9252
:1023A0001F93CF93DF937C016C018EEFD81A10E05E
:1023B00015C081E396E00E948512CC15DD05E1F0A1
:1023C00082E0E80EF11C88810E94611210E080E238
:1023D0000E944B121F5FCE14DF0471F0E701899158
:1023E0000E946112133129F37E0180E20E944B1298
:1023F0001F5FCE14DF0491F78EE296E0DF91CF915C
:102400001F91FF90EF90DF90CF900C948512CF93A7
:10241000C82F803150F4C3FD0EC0C2FD12C0C1FDF3
:1024200016C0C0FD1AC0CF9108958BE196E00E94BE
:102430008512C3FFF2CF86E096E00E948512C2FFAC
:10244000EECF83EF95E00E948512C1FFEACF87EEC1
:1024500095E00E948512C0FFE6CF8EED95E0CF910A
:102460000C94851224B12C6224B9249A90649CBDEA
:102470008DBD08958EBD0DB407FEFDCF8EB50895B8
:102480001092C50087E68093C400E1ECF0E0808103
:102490008861808308959091C00095FFFCCF809360
:1024A000C6000895FC019081911551F031968091FC
:1024B000C00085FFFCCF9093C60091919111F7CF9A
:1024C0000895282F22952F70382F3F70803AA0F062
:1024D00087E3280F97E33A3008F490E3930F809155
:1024E000C00085FFFCCF2093C6008091C00085FF0F
:1024F000FCCF9093C600089580E3EBCF8091C0009D
:1025000087FFFCCF8091C6000895FC019C012F5FDE
:102510003F4F9491911559F0F9018091C00085FFCA
:10252000FCCF9093C600949131969111F6CF089507
:102530008091C000807808950F931F93CF93DF930D
:1025400000D000D000D0CDB7DEB7462F572FBC014A
:10255000E6EDF8E09491911561F0E7EDF8E08091F7
:10256000C00085FFFCCF9093C600949131969111E5
:10257000F6CF142F1F70DB01CA0124E0B695A79592
:10258000979587952A95D1F71A3008F06CC0105DA1
:10259000F82FFF70BB27A72F962F852FFA3008F052
:1025A0006CC0F05DE82FEF70DB01CA010CE0B6955E
:1025B000A795979587950A95D1F7EA3008F05FC0FF
:1025C000E05D382F3F70CB01AA27BB273A3008F0D7
:1025D0005FC0305D082F0F70DB01CA0124E1B695A2
:1025E000A795979587952A95D1F70A3008F052C09C
:1025F000005D282F2F70872F9927AA27BB272A3005
:1026000008F052C0205D8F709CE1769567955795D4
:1026100047959A95D1F78A3008F048C0805D4A30D6
:1026200000F1495C19861887FF83EE833D830C8394
:102630002B838A834983FE0132968091C00085FFF7
:10264000FCCF4093C60041914111F7CF29960FB6B8
:10265000F894DEBF0FBECDBFDF91CF911F910F91D8
:102660000895405DDFCF195CF82FFF70BB27A72FBF
:10267000962F852FFA3008F494CFF95C93CFE95C5C
:10268000382F3F70CB01AA27BB273A3008F4A1CFDF
:10269000395CA0CF095C282F2F70872F9927AA2794
:1026A000BB272A3008F4AECF295CADCF895CB7CF09
:1026B0008F929F92AF92BF92CF92DF92EF92FF9252
:1026C000CF93DF93CDB7DEB760970FB6F894DEBF38
:1026D0000FBECDBF6B017C01188A8AE0882E912C39
:1026E000A12CB12CC701B601A50194010E94552768
:1026F000605D6F878AE0C816D104E104F10408F434
:10270000ABC0CA01B901A50194010E945527605DC3
:102710006E8784E6C816D104E104F10408F49FC072
:10272000CA01B901A50194010E945527605D6D871A
:1027300088EEC81683E0D806E104F10408F492C0DC
:10274000CA01B901A50194010E945527605D6C87FB
:1027500080E1C81687E2D806E104F10408F48BC0D2
:10276000CA01B901A50194010E945527605D6B87DC
:1027700080EAC81686E8D80681E0E806F10408F485
:1027800077C0CA01B901A50194010E945527605D77
:102790006A8780E4C81682E4D8068FE0E806F10470
:1027A00008F463C0CA01B901A50194010E9455272C
:1027B000605D698780E8C81686E9D80688E9E8067A
:1027C000F10408F45BC0CA01B901A50194010E949B
:1027D0005527605D6887C11481EED80685EFE8064D
:1027E00085E0F80608F450C0CA01B901A5019401BA
:1027F0000E945527605D6F83C1148AECD8068AE970
:10280000E8068BE3F806E8F1205D2E8385E090E092
:10281000E1E0F0E0EC0FFD1FE80FF91F908191154A
:1028200051F031968091C00085FFFCCF9093C60097
:1028300091919111F7CF60960FB6F894DEBF0FBE5D
:10284000CDBFDF91CF91FF90EF90DF90CF90BF9001
:10285000AF909F908F9008958EE090E0D9CF8DE05B
:1028600090E0D6CF8CE090E0D3CF89E090E0D0CF5D
:102870008AE090E0CDCF8BE090E0CACF88E090E096
:10288000C7CF86E090E0C4CF87E090E0C1CFCDB75E
:10289000DEB7E0970FB6F894DEBF0FBECDBF0E9443
:1028A000401281E695E00E94851280E091E10E944D
:1028B00032120E94F50E811529F083E495E00E9402
:1028C0008512FFCF8FE195E00E94851261E070E0F4
:1028D00080EC90E00E947028FC0190934E08809359
:1028E0004D08DC01A058BF4F40E050E060E070E8C8
:1028F0004D935D936D937C93139780E499EFAFEFC5
:10290000B0E884A795A7A6A7B7A7E454FF4F83E034
:1029100090E0A0E0B0E080839183A283B3832FEFA7
:102920003FEF40E050E0BA0180E00E94BE0420E0AA
:1029300030E048E959E160E070E081E00E94BE04C7
:1029400020E030E043EC5BE060E070E082E00E9479
:10295000BE0488EC8093E502299A809181008A6008
:102960008093810087E08093890080ED80938800C8
:1029700080916F00826080936F00789485E095E08D
:102980000E9485126DB77EB780915F0890916008B4
:10299000009711F40C94361E681B790B072E000C5F
:1029A000880B990B0E9458138CEF94E00E948512BB
:1029B000B7E02B2EB2E03B2E199B8FC280904D08C2
:1029C00090904E089A8A898A90904F089D82A09094
:1029D0005008AE82B0905108BF82E0905208E8865D
:1029E000F0905308F986009154080A871091550811
:1029F0001B87209156082C8749895A8948575F4F71
:102A00005C8B4B8BDA012C9111963C9111971296AD
:102A10004C91129713965C91139714966C9114979E
:102A200015967C91159716968C91169717969C91F2
:102A300001E00E943D2849015A01240135010D8120
:102A40001E812F813885401A510A620A730A530188
:102A500042019201A50160E070E080E090E0AD806D
:102A6000BE80CF80D884E984FA840B851C850E94BF
:102A7000582820934F0830935008409351085093A2
:102A800052086093530870935408809355089093AC
:102A9000560829893A8920573F4F3EA32DA3D901D3
:102AA0004D915D916D917C91440E551E661E771E71
:102AB000E989FA89EC56FF4FF8A7EFA3808191814D
:102AC000A281B381441655066606770638F401964E
:102AD000A11DB11D80839183A283B383EDA1FEA1CB
:102AE000408251826282738209891A8904561F4F7B
:102AF0001AA709A7F80140815181628173814817A3
:102B000059076A077B0708F46AC0481759076A071C
:102B10007B0709F456C0E989FA89E455FF4FFCA305
:102B2000EBA380819181A281B3818F778083918390
:102B3000A283B38309891A8904541F4F1AA309A3D6
:102B4000D8018C9182FD02C00C94EE1DEFE9FFE0EC
:102B50003197F1F700C00000AB89BC892C91119628
:102B60003C91119712964C91129713965C91139782
:102B700014966C91149715967C91159716968C91D6
:102B8000169717969C9117973C5F4F4F5F4F6F4F6B
:102B90007F4F8F4F9F4F2C9311963C931197129616
:102BA0004C93129713965C93139714966C93149707
:102BB00015967C93159716968C93169717969C935B
:102BC000FBCEE989FA89E856FF4F80819181A28185
:102BD000B38184159505A605B70508F09CCF452B54
:102BE000462B472B69F4E989FA89E856FF4F808123
:102BF0009181A281B381892B8A2B8B2B09F48BCFF6
:102C000009891A8904541F4F1AA309A3F801808166
:102C10009181A281B3818B7F80839183A283B383CF
:102C200009891A8904551F4F1CA30BA3F801808141
:102C30009181A281B381806880839183A283B383D1
:102C400009891A8900581F4F1CA70BA7D8018D901E
:102C50009D90AD90BC908D829E82AF82B886AB89EC
:102C6000BC898D909D90AD90BC90898E9A8EAB8ED4
:102C7000BC8EE989FA89E855FF4F808187FD3AC704
:102C8000950184010F5F1F4F2F4F3F4F0D871E8708
:102C90002F87388B8D809E80AF80B88410E8B11A62
:102CA00081149104A10421E0B20608F0B0C7D50157
:102CB000C40183709927AA27BB27892B8A2B8B2BCA
:102CC00009F0F8C3498D5A8D6B8D7C8D5C5F6F4F19
:102CD0007F4F498F5A8F6B8F7C8F8401117042E038
:102CE000C501B4010E94C0060D3F91E0190708F02C
:102CF0009BC4829DF001839DF00D1124E00FF11F14
:102D0000E85CFD4F308121819281838139832A8360
:102D10009B838C83C980DA80EB80FC80B701A6019D
:102D200087E076956795579547958A95D1F72A015B
:102D30003B018FE14822552466247724D701C60140
:102D40008F779927AA27BB2788339105A105B1055D
:102D500008F004C483309105A105B10508F42BC720
:102D60000397A109B10984339105A105B10509F0C3
:102D700038F4FC018827E553F64D8F4F0C949627C5
:102D800043E050E060E070E0415051096109710991
:102D90000D811E812F8138858D849E84AF84B888F3
:102DA000898E9A8EAB8EBC8EE989FA89EC57FF4FDB
:102DB000A989BA89A854BF4F4D935D936D937C93B5
:102DC0001397A989BA89AC54BF4F0D931D932D93C6
:102DD0003C931397A989BA89A055BF4F8D809E80D7
:102DE000AF80B8848D929D92AD92BC921397A9A1A9
:102DF000BAA14D915D916D917C9180819181A2816B
:102E0000B38124E0880F991FAA1FBB1F2A95D1F711
:102E100080789927AA27BB278A019B010F2EFBE008
:102E2000000F111F221F331FFA95D1F7F02D002735
:102E3000187122273327802B912BA22BB32B808351
:102E40009183A283B383E989FA89EC55FF4F80808F
:102E50009180A280B3808D829E82AF82B8864360CB
:102E6000A9A1BAA14D935D936D937C931397EB89C0
:102E7000FC8980819181A281B381898C9A8CAB8CF1
:102E8000BC8C88169906AA06BB0678F4E989FA89EB
:102E9000E457FF4F80819181A281B3810196A11DEA
:102EA000B11D80839183A283B383898C9A8CAB8C70
:102EB000BC8CAB89BC898D929D92AD92BC921397CC
:102EC0008D809E80AF80B884ABA5BCA58D929D926D
:102ED000AD92BC921397199971CDF894C0902002CD
:102EE000D0902102E0902202F0902302789481EEAB
:102EF00094E00E948512E0914D08F0914E08E85749
:102F0000FF4F208131814281538180912402909131
:102F10002502A0912602B0912702281B390B4A0BEB
:102F20005B0BA8EEB3E00E949E2700911C0210915B
:102F30001D0220911E0230911F0246015701801A86
:102F4000910AA20AB30AA50194010E945527CA0159
:102F5000B9010E94581385ED94E00E94851280917A
:102F60001C0290911D02A0911E02B0911F029701B8
:102F70008601081B190B2A0B3B0BC901B8010E94E3
:102F8000581389EC94E00E948512E0914D08F0916D
:102F90004E08E857FF4F60817181828193810091D3
:102FA0002402109125022091260230912702601BF5
:102FB000710B820B930B0E94581386EC94E00E94D5
:102FC00085128CEA94E00E9485126DB77EB78091DD
:102FD0005F0890916008009711F40C941D21681B04
:102FE000790B072E000C880B990B0E94581383EA6B
:102FF00094E00E94851281E994E00E94851260911C
:1030000034027091350280913602909137020E940D
:1030100058138FE894E00E948512609130027091FD
:10302000310280913202909133020E9458138BE753
:1030300094E00E94851260912C0270912D02809183
:103040002E0290912F020E94581389E794E00E946B
:103050008512609128027091290280912A02909134
:103060002B020E94581386E794E00E9485120E946A
:10307000520581E394E00E948512199BFECF8CE0FB
:1030800094E00E948512E0914D08F0914E08E857B7
:10309000FF4F80819181A281B3818093240290931C
:1030A0002502A0932602B0932702F8948091200273
:1030B00090912102A0912202B091230278948093F2
:1030C0001C0290931D02A0931E02B0931F0276CCA7
:1030D00046015701A4E1B694A79497948794AA95C2
:1030E000D1F7D501C40188279870AA27BB2700977C
:1030F000A105B10521F080E090EFAFEFBFEF882A86
:10310000992AAA2ABB2AD701C6017FE0B695A795BE
:10311000979587957A95D1F78F719927AA27BB271D
:10312000880F991F880F991FE989FA89E80FF91FFD
:1031300020813181428153812D8B3E8B4F8B588F63
:103140004D815E816F8178854C5F5F4F6F4F7F4F00
:103150004D8F5E8F6F8F78A3D701C601FCE0B695C7
:10316000A79597958795FA95D1F787709927AA27FC
:10317000BB27C5FE51C45FE185229924AA24BB2444
:10318000880C991C880C991CE989FA89E80DF91DAD
:1031900080809180A280B3800197A109B109F1FEDE
:1031A000B8C486309105A105B10509F008F462C5DF
:1031B0002D893E894F89588DC501B4010E9445274C
:1031C0006D8B7E8B8F8B988F8D809E80AF80B88427
:1031D0006D8D7E8D8F8D98A16D837E838F83988773
:1031E00024C1D701C6015FE0B695A795979587954D
:1031F0005A95D1F78F719927AA27BB27880F991F56
:10320000880F991FE989FA89E80FF91F0081118158
:1032100022813381B701A601E4E176956795579540
:103220004795EA95D1F7DB01CA0188279870AA274C
:10323000BB270097A105B10521F080E090EFAFEF2B
:10324000BFEF482B592B6A2B7B2B040F151F261F12
:10325000371F48015901F0E8BF1A4DEF84164FEFB0
:103260009406A406B10408F4FAC3D901C801B05108
:103270000097A105B24008F064C4CD80DE80EF80E5
:10328000F88464E0C60ED11CE11CF11C0C3F7FEBFE
:103290001707210571E1370709F4B8C5083FBFEBEF
:1032A0001B072105B1E13B0709F0ADC7ADA1BEA1E8
:1032B0008D909D90AD90BC908D8A9E8AAF8AB88E7D
:1032C0008D809E80AF80B884CD82DE82EF82F886CA
:1032D000ACC0D701C6011FE0B695A7959795879515
:1032E0001A95D1F78F719927AA27BB27880F991FA5
:1032F000880F991FE989FA89E80FF91F8081918168
:10330000A281B3814601570124E1B694A794979412
:1033100087942A95D1F7B501A4014F7155276627E7
:103320007727FA01EE0FFF1FEE0FFF1F29893A8959
:10333000E20FF31F00810D8B11811D8F428153819C
:1033400020EE82222FE09222AA24BB249501840140
:10335000042915292629372993FE03C0106F2F6FE2
:103360003F6F080F191F2A1F3B1F4801590160E8D2
:10337000B61A7DEF87167FEF9706A706B10408F40B
:1033800092C3D901C801B0510097A105B24008F01D
:10339000D3C30430F0E41F072105F1E13F0709F42E
:1033A00048C5011560E41607210561E1360709F4F7
:1033B00048C70115110540E1240741E1340711F424
:1033C0000C941827011511052105304111F40C94B6
:1033D000E0258D809E80AF80B884950184010C5FCC
:1033E0001F4F2F4F3F4F0D831E832F83388732C0CF
:1033F000CC2430EFD3228D809E80AF80B8848C0C9B
:103400009D1CAE1CBF1C8D8A9E8AAF8AB88E8D8093
:103410009E80AF80B884950184010C5F1F4F2F4FB1
:103420003F4F0D831E832F8338874114510461045D
:10343000710481F0440C551C440C551CE989FA892F
:10344000E40DF51D8D899E89AF89B88D80839183A8
:10345000A283B383ED84FE840F851889298D3A8D6C
:103460004B8D5C8DE216F3060407150709F4FFCCBB
:10347000C801B7016F5F7F4F8F4F9F4F6D877E876A
:103480008F87988B74E0870E911CA11C70E8B71E83
:1034900081149104A10481E0B80608F0B8C3D501F5
:1034A000C40183709927AA27BB27892B8A2B8B2BD2
:1034B00009F413CC41E050E060E070E065CC970186
:1034C00086010027107F0D8B1E8B2F8B388F8D80F0
:1034D0009E80AF80B884A50194012C5F3F4F4F4F71
:1034E0005F4F2D833E834F8358879FCFD701C601FF
:1034F0007FE0B695A795979587957A95D1F78F71C7
:103500009927AA27BB27880F991F880F991FE98938
:10351000FA89E80FF91F0081118122813381480166
:103520005901B0E8BB1AEDEF8E16EFEF9E06AE061E
:10353000B10408F40BC388E090E0A0E0B0E0AC0177
:10354000BD0141505109610971090697A109B109ED
:103550000397A105B10508F41FCC1ACC8F3691054D
:10356000A105B10509F4CFC108F095C083369105D6
:10357000A105B10509F414C187369105A105B1056E
:1035800009F019C3D701C60124E1B695A79597950F
:1035900087952A95D1F7AC01BD014427587066275D
:1035A0007727411551056105710521F040E050EF85
:1035B0006FEF7FEF0D811E812F8138850C5F1F4FCC
:1035C0002F4F3F4F0D8B1E8B2F8B388F1FE0F694A4
:1035D000E794D794C7941A95D1F71FE1C122DD244F
:1035E000EE24FF24CC0CDD1CCC0CDD1CE989FA890F
:1035F000EC0DFD1D842B952BA62BB72B8080918085
:10360000A280B380880D991DAA1DBB1D9C01AD0130
:103610002E7F2D833E834F835887245031094109E3
:10362000510949015A0101CFE12CA2E0FA2EE01A1A
:10363000F10A829DB001839D700D1124600F711FEE
:10364000685C7D4FA701CE0101960E94B92943E035
:10365000C501B4010E94C006A8014C5F5140829D83
:10366000B001839D700D1124685C7D4F81E090E076
:103670008C0F9D1F8E0D9F1D0E94B929C980DA8075
:10368000EB80FC80C701B6010E949C128CEE93E097
:103690000E94851243CB83379105A105B10509F03E
:1036A0008AC24601570194E1B694A79497948794EF
:1036B0009A95D1F7970186014CE036952795179595
:1036C00007954A95D1F7B901A80147705527662794
:1036D00077274D8F5E8F6F8F78A303701127222776
:1036E0003327011511052105310509F46EC10FE0DD
:1036F000F694E794D794C7940A95D1F786010F7191
:103700001127F801EE0FFF1FEE0FFF1F69897A895D
:10371000E60FF71FC080D180E280F38075E4871642
:1037200073E09706A104B10408F0F1C2811483E0AC
:103730009806A104B10460F0D501C4019350A10919
:10374000B10984349105A105B10509F008F479C2E5
:1037500050E4851651E0950609F491C780E090E0A9
:10376000DC018D8B9E8BAF8BB88F8D8D9E8DAF8D39
:10377000B8A185309105A105B10511F40C94162569
:1037800010F00C94002582309105A105B10511F4CB
:103790000C94F7240397A105B10509F4E7C2FEC212
:1037A000D701C60114E1B695A795979587951A9507
:1037B000D1F74E715527662777274C015D01E0EE62
:1037C0008E22E7E09E22AA24BB24482959296A298F
:1037D0007B2946015701880C991CAA1CBB1C880C2C
:1037E000991CAA1CBB1C880C991CAA1CBB1C880C0D
:1037F000991CAA1CBB1C8824F8E09F22AA24BB2485
:10380000482959296A297B2997018601002737FD14
:103810000395112722273327FCE0000F111F221FD9
:10382000331FFA95D1F7402B512B622B732B012BB1
:10383000022B032B19F0506E6F6F7F6F970186017B
:10384000FFE03695279517950795FA95D1F70F71F3
:10385000112722273327000F111F000F111FE9899D
:10386000FA89E00FF11F00811181228133818F716C
:103870009927AA27BB27880F991F880F991FE989C5
:10388000FA89E80FF91F80819181A281B3818D802F
:103890009E80AF80B884E4E08E1A9108A108B10838
:1038A000840E951EA61EB71EFCE0F694E794D794EE
:1038B000C794FA95D1F7F7E0CF22DD24EE24FF2458
:1038C00045E0C416D104E104F10409F48EC408F003
:1038D00077C171E0C716D104E104F10409F4BFC156
:1038E000E4E0CE16D104E104F10409F477C4CD2854
:1038F000CE28CF2809F05FC1081719072A073B0710
:1039000009F067CD6ACDD701C6013BE0B695A79512
:10391000979587953A95D1F788279927A071BB2766
:10392000B701A601E4E17695679557954795EA9525
:10393000D1F74E7F577066277727842B952BA62BC0
:10394000B72BB701A6014427507F6F707727842BD0
:10395000952BA62BB72BF9E0F694E794D794C79450
:10396000FA95D1F7CC2418E0D122EE24FF24C82AFE
:10397000D92AEA2AFB2AA4FF04C020EEE22AFF2467
:10398000FA944D815E816F8178854C5F5F4F6F4FF8
:103990007F4F4D8B5E8B6F8B788F8D809E80AF803D
:1039A000B88454E0851A9108A108B1088C0C9D1CBC
:1039B000AE1CBF1CC501B4016C5F7F4F8F4F9F4F82
:1039C0006D837E838F83988730CD4D8D5E8D6F8D17
:1039D00078A1452B462B472B09F0A9C055E0851649
:1039E00051E09506A104B10411F40C94B626F2E05E
:1039F0008F1609F42CC281149104A104B10409F4B6
:103A00002BC48A9489288A288B2809F06BC044E04B
:103A100050E060E070E0B8C90197A109B1098630B3
:103A20009105A105B10509F008F47AC06D897E8978
:103A30008F89988D680D791D8A1D9B1D6D8B7E8BDE
:103A40008F8B988F8D809E80AF80B8848D8D9E8D5A
:103A5000AF8DB8A18D839E83AF83B887E6CC4CE051
:103A6000F694E794D794C7944A95D1F707E0C0221B
:103A7000DD24EE24FF2412E0C116D104E104F10498
:103A800009F46AC208F0C8C0CD28CE28CF2809F4AE
:103A900036C2C501B4010E940C0A882E880F99080D
:103AA000AA08BB08B0CCBCE0F694E794D794C794BE
:103AB000BA95D1F7E7E0CE22DD24EE24FF24F1E031
:103AC000CF16D104E104F10409F4DBC002E0C01612
:103AD000D104E104F10409F48FC3CD28CE28CF2806
:103AE00009F4FCC000E010E0980183E090E0A0E061
:103AF000B0E025CDE989FA89EC57FF4F808183FF3B
:103B0000BFC847E050E060E070E800E010E09801D6
:103B10004FC986309105A105B10511F008F0D4C355
:103B2000FC018827E050F64D8F4F0C94962783E0D8
:103B300090E0A0E0B0E003CD88E090E0A0E0B0E04D
:103B4000FECC86E090E0A0E0B0E0F9CCD701C60161
:103B500044E1B695A795979587954A95D1F78F71CA
:103B60009927AA27BB27880F991F880F991FE989D2
:103B7000FA89E80FF91F00811181228133810D8FAD
:103B80001E8F2F8F38A3C501B4010E94DB086D8BF7
:103B90007E8B8F8B988FD701C6016BE1B695A79569
:103BA000979587956A95D1F7C114D104E10418EE71
:103BB000F10608F44DC043E050E060E070E0E4C876
:103BC00066E0C616D104E104F10409F400C3081745
:103BD00019072A073B0708F000CCFBCBE989FA89D3
:103BE000E058FF4FFCA7EBA780809180A280B380B4
:103BF0008D829E82AF82B886AB89BC898D909D9064
:103C0000AD90BC90898E9A8EAB8EBC8E39C842E046
:103C100050E060E070E0B8C834E0C316D104E104BD
:103C2000F10409F4B0C145E0C416D104E104F10483
:103C300011F6C501B4010E940C0A4C01A12CB12C53
:103C4000E2CBFC018827E95FF54D8F4F0C94962756
:103C5000FC018827E45BF54D8F4F0C9496270817DD
:103C600019072A073B0709F0B8CBB3CB81E698E0E8
:103C70000C94CC14FC018827E759F54D8F4F0C9418
:103C800096278401117040E0C501B4010E94C0066E
:103C9000282F0F3F31E0130709F4F4C747E052E043
:103CA000249FC001259F900D1124885C9D4FFC012D
:103CB000E00FF11F1D8910838D8C8182FC01EA5F6A
:103CC000FD4F21E020833297808191818F3F9807BB
:103CD00009F47FCB0196918380837BCB40E0C501C3
:103CE000B4010E94C00611E09122AA24BB2447E03F
:103CF00052E0849F9001859F300D1124C901885C9A
:103D00009D4F880E991EAD88D401AC92D7CF8114F7
:103D10009CE09906A104B10409F4A6C6A1E18A16A3
:103D2000AFE09A06A104B10409F018CD8FEF90EF2F
:103D3000AFE0BFEF8D8B9E8BAF8BB88F2D8D3E8DFF
:103D40004F8D58A1253031054105510509F46EC646
:103D500008F034C6223031054105510509F447C643
:103D6000233031054105510509F03DC7C094D09479
:103D7000E094F0946D897E898F89988DC622D72230
:103D8000E822F922E989FA89E056FF4F70E48716A4
:103D900073E09706A104B10409F4D7C481E488163E
:103DA00083E09806A104B10408F4ECC5E2E48E16A1
:103DB000E3E09E06A104B10409F447C608F43BC63B
:103DC00003E4801603E09006A104B10409F438C6A8
:103DD00014E4811613E09106A104B10409F003C7AD
:103DE000ABA1BCA1CD92DD92ED92FC9213978D8098
:103DF0009E80AF80B884950184010C5F1F4F2F4FC8
:103E00003F4F0D831E832F8338870FCBAFA1B8A5FB
:103E10008D909D90AD90BC908D8A9E8AAF8AB88E11
:103E20008D809E80AF80B884CD82DE82EF82F8865E
:103E3000FCCA8D88A9A5BAA58C929D8C11969C92DE
:103E4000119712964C93129713965C93C2CAE98904
:103E5000FA89EC57FF4F80809180A280B380A9A19E
:103E6000BAA14D915D916D917C9195018401A4E081
:103E70003695279517950795AA95D1F708701127BC
:103E8000222733276A017B01BBE0CC0CDD1CEE1C32
:103E9000FF1CBA95D1F7CC24B8E1DB22EE24FF2435
:103EA0000C291D292E293F290068008311832283B4
:103EB0003383D501C4011BE0B695A79597958795E7
:103EC0001A95D1F783709927AA27BB274C7F842B9B
:103ED000952BA62BB72BE9A1FAA180839183A2830E
:103EE000B383E989FA89E055FF4F80809180A280F1
:103EF000B380F4E08F1A9108A108B1086ECA40E0BF
:103F0000C501B4010E94C006282F30E047E052E00E
:103F1000849FF001859FF00D1124E45CFB4F8081AC
:103F200091818E3F5FEF950718F40296918380830D
:103F300061E09622AA24BB2447E052E0249FC001FE
:103F4000259F900D349F900D1124885C9D4F880E05
:103F5000991ED4018C91A1CDC501B4010E94DB084A
:103F60006D8B7E8B8F8B988F8D809E80AF80B88479
:103F7000A50194012C5F3F4F4F4F5F4F2D833E8330
:103F80004F83588752CA40E0C501B4010E94C00661
:103F9000282F30E047E052E0849FF001859FF00D2C
:103FA0001124E45CFB4F808191818E3F4FEF940799
:103FB00018F402969183808351E09522AA24BB24B1
:103FC00047E052E0249FC001259F900D349F900D43
:103FD0001124885C9D4F880E991ED4018C91882EE7
:103FE000912CA12CB12C0FCA5FE185229924F6FEF9
:103FF0004FC16D897E898F89988D04C0959587956D
:10400000779567958A94D2F76D8B7E8B8F8B988F7F
:104010008D809E80AF80B8848D8D9E8DAF8DB8A130
:104020008D839E83AF83B88700CA81E0ED88FE88C8
:104030000F89188DE814F9040A051B0508F080E0C3
:104040008D8B1E8A1F8A188E8D809E80AF80B884CB
:104050000D8D1E8D2F8D38A10D831E832F833887E4
:10406000E4C92D893E894F89588D282539254A254F
:104070005B252D8B3E8B4F8B588F8D809E80AF8024
:10408000B8844D8D5E8D6F8D78A14D835E836F8377
:104090007887CBC981E02D893E894F89588D2815B5
:1040A00039054A055B050CF080E08D8B1E8A1F8A5E
:1040B000188E8D809E80AF80B8844D8D5E8D6F8D03
:1040C00078A14D835E836F837887AFC92D893E8940
:1040D0004F89588D282939294A295B292D8B3E8BF8
:1040E0004F8B588F8D809E80AF80B8844D8D5E8DB4
:1040F0006F8D78A14D835E836F83788796C99FE12A
:1041000089229924ED88FE880F89188D04C0EE0C51
:10411000FF1C001F111F8A94D2F7ED8AFE8A0F8BB5
:10412000188F8D809E80AF80B8840D8D1E8D2F8D51
:1041300038A10D831E832F83388777C96D897E89C7
:104140008F89988D682179218A219B216D8B7E8BA7
:104150008F8B988F8D809E80AF80B8848D8D9E8D43
:10416000AF8DB8A18D839E83AF83B8875EC93D892B
:104170002E899F89888DED88FE880F89188D4D8D39
:104180005E8D6F8D78A1E416F5060607170724F4F7
:104190003D8D2E8D9F8D88A13D8F2E8F9F8F88A363
:1041A0002D8D3E8D4F8D58A1C501B4010E946A0925
:1041B0008D809E80AF80B884C501B4016C5F7F4F55
:1041C0008F4F9F4F6D837E838F8398872EC90817EB
:1041D00019072A073B0708F400C9FBC80817190785
:1041E0002A073B070CF4F9C8F4C8081719072A076F
:1041F0003B070CF0F2C8EDC82D893D8DC501B40117
:104200000E946A09E6C8053011052105B0E13B07A7
:1042100009F4A8C5011511052105304109F489C526
:104220008D809E80AF80B884CD82DE82EF82F8865A
:104230001D8A1E8A1F8A188EF8C881E698E00C94A1
:10424000EF17E989FA89E856FF4F8D8880829D8CA7
:10425000918242835383BDC8A9A1BAA10D911D913A
:104260002D913C91037011272227332789E090E09C
:10427000A0E0B0E0011511052105310509F45FC981
:1042800000E010E098018CE090E0A0E0B0E057C9B9
:10429000ED88FE880F89188D04C016950795F79450
:1042A000E7948A94D2F7ED8AFE8A0F8B188F8D805F
:1042B0009E80AF80B8840D8D1E8D2F8D38A10D830B
:1042C0001E832F833887B1C800E2C022DD24EE248C
:1042D00000E4F02210E2C116D104E10410E4F1067A
:1042E00009F0A4CB2D893E894F89588D28193909A9
:1042F0004A095B092D8B3E8B4F8B588F8D809E809A
:10430000AF80B8844D8D5E8D6F8D78A14D835E83B7
:104310006F8378878AC881149104A104B10409F4D9
:104320008EC42D893E894F89588D2115310541054F
:10433000504809F464C56D897E898F89988DA501DF
:1043400094010E9477276D8B7E8B8F8B988F8D8049
:104350009E80AF80B8848D8D9E8DAF8DB8A18D83EA
:104360009E83AF83B88761C86D897E898F89988D58
:10437000A50194010E94102800E20E943D282D8B87
:104380003E8B4F8B588F8D809E80AF80B8842D8D53
:104390003E8D4F8D58A12D833E834F83588745C84E
:1043A000ED88FE880F89188D110FEE08FE2C87010D
:1043B000EDA6FEA60FA718AB950184015401690173
:1043C000E12CF12C00E010E02D893E894F89588DB9
:1043D0006DA5762F862F962F0E94A92700E20E94B6
:1043E0003D282D8B3E8B4F8B588F8D809E80AF80CC
:1043F000B8840D8D1E8D2F8D38A10D831E832F83C4
:10440000388713C881149104A104B10409F401C4CC
:104410006D897E898F89988DA50194010E94552709
:104420002D8B3E8B4F8B588F8D809E80AF80B884B4
:104430000D8D1E8D2F8D38A10D831E832F83388700
:104440000C94151A81149104A104B10409F405C453
:104450004D895E896F89788D4115510561057048D8
:1044600009F4B8C46D897E898F89988DA50194015E
:104470000E9477272D8B3E8B4F8B588F8D809E808F
:10448000AF80B884ED8CFE8C0F8D18A1ED82FE827A
:104490000F8318870C94151A6D897E898F89988DE2
:1044A000A50194010E94012800E20E943B282D8B67
:1044B0003E8B4F8B588F8D809E80AF80B8848D8DC2
:1044C0009E8DAF8DB8A18D839E83AF83B8870C94EA
:1044D000151A81149104A104B10409F476C36D89FD
:1044E0007E898F89988DA50194010E9455276D8B37
:1044F0007E8B8F8B988F8D809E80AF80B884ED8C63
:10450000FE8C0F8D18A1ED82FE820F8318870C940C
:10451000151AE9A1FAA180819181A281B3818770E6
:104520009927AA27BB2733E0880C991CAA1CBB1C1F
:104530003A95D1F788299929AA29BB2980839183A3
:10454000A283B38335CE0D8D1E8D2F8D38A14D895D
:104550005E896F89788D041715072607370708F0DD
:104560001FCE4D8F5E8F6F8F78A31ACE6D897E8997
:104570008F89988DED8CFE8C0F8D18A16E157F059F
:104580008007910708F00CCE6D8F7E8F8F8F98A3D8
:1045900007CE3D892E899F89888DED8CFE8C0F8DED
:1045A00018A14D895E896F89788DE416F506060796
:1045B00017070CF0F1CDECCDED8CFE8C0F8D18A112
:1045C0002D893E894F89588DE222F3220423152339
:1045D000ED8EFE8E0F8F18A3E3CDED8CFE8C0F8D2C
:1045E00018A12D893E894F89588DE22AF32A042B80
:1045F000152BED8EFE8E0F8F18A3D2CDED8CFE8C79
:104600000F8D18A12D893E894F89588DE226F326FA
:1046100004271527ED8EFE8E0F8F18A3C1CDE9A1BB
:10462000FAA180819181A281B38123E0B695A795FB
:10463000979587952A95D1F721E088169906AA06BD
:10464000BB0609F420E02D8B1E8A1F8A188E88165F
:104650009906AA06BB0609F0ABCDA2CDED8CFE8C67
:104660000F8D18A12D893E894F89588DE20EF31EBA
:10467000041F151FED8EFE8E0F8F18A391CD0E9483
:104680009812811509F4FCC30E947E1290E0A0E00C
:10469000B0E067C8E989FA89EC57FF4F4081518142
:1046A000628173814D8B5E8B6F8B788F6D8D7E8D6C
:1046B0008F8D98A1653071058105910509F4B6C10A
:1046C00008F09DC2623071058105910509F48FC122
:1046D000633071058105910509F448CBC082D18210
:1046E000E282F3828D809E80AF80B884B501A40100
:1046F0004C5F5F4F6F4F7F4F4D835E836F83788733
:104700000C94151AE989FA89E055FF4F608171818F
:10471000828193816D8B7E8B8F8B988F8D8D9E8DFB
:10472000AF8DB8A185309105A105B10509F47EC111
:1047300008F066C182309105A105B10509F457C1A1
:104740000397A105B10509F411CBC082D182E282A1
:10475000F3828D809E80AF80B884A50194012C5F88
:104760003F4F4F4F5F4F2D833E834F8358870C94AD
:10477000151AABA1BCA14D915D916D917C914D8BB2
:104780005E8B6F8B788F2D8D3E8D4F8D58A1253090
:1047900031054105510509F449C108F00FC1223026
:1047A00031054105510509F422C123303105410588
:1047B000510509F4DBCA14CBE989FA89E855FF4FA2
:1047C00060817181828193816D8B7E8B8F8B988FBD
:1047D0008D8D9E8DAF8DB8A185309105A105B10558
:1047E00009F424C108F00CC182309105A105B1057E
:1047F00009F4FDC00397A105B10509F4B7CAC08249
:10480000D182E282F3828D809E80AF80B884C50120
:10481000B4016C5F7F4F8F4F9F4F6D837E838F837B
:1048200098870C94151AE989FA89EC55FF4F808115
:104830009181A281B3818D8B9E8BAF8BB88F2D8D93
:104840003E8D4F8D58A1253031054105510509F4A4
:10485000EDC008F0B3C0223031054105510509F41F
:10486000C6C0233031054105510509F47FCA36CF52
:10487000E989FA89E056FF4F2081318142815381D5
:104880002D8B3E8B4F8B588F4D8D5E8D6F8D78A10C
:10489000453051056105710509F4C8C008F085C1AE
:1048A000423051056105710509F4A1C0433051053D
:1048B0006105710509F45ACA48CFE989FA89E854B3
:1048C000FF4F20813181428153812D8B3E8B4F8B55
:1048D000588F4D8D5E8D6F8D78A1453051056105E6
:1048E000710509F4A3C008F060C1423051056105AB
:1048F000710509F47CC0433051056105710509F467
:1049000035CA7DCFE989FA89EC54FF4F80819181C6
:10491000A281B3818D8B9E8BAF8BB88F2D8D3E8DF9
:104920004F8D58A1253031054105510509F47EC050
:1049300008F044C0223031054105510509F457C043
:10494000233031054105510509F410CAC082D182D6
:10495000E282F3828D809E80AF80B884D501C4014D
:104960000496A11DB11D8D839E83AF83B8870C94DF
:10497000151A61E071E180E490E46D8B7E8B8F8B82
:10498000988FDCC994E0891693E09906A104B104DC
:1049900009F465C0A5E08A16A3E09A06A104B10453
:1049A00009F458C08114B3E09B06A104B10409F0D6
:1049B00065C0E989FA89EC57FF4F90CE4D8D5E8D29
:1049C0006F8D78A1463051056105710511F1C8015F
:1049D00080959095092E000CAA0BBB0BCD88DE8824
:1049E000EF88F88CC822D922EA22FB22CBC94D8954
:1049F0005E896F89788DC42AD52AE62AF72AC2C92A
:104A00002D8D3E8D4F8D58A1263031054105510524
:104A1000F1F6012E000C220B330BCD88DE88EF88D7
:104A2000F88CC02AD12AE22AF32AACC96801110FF6
:104A3000EE08FF08A7C9E989FA89E055FF4F85CE3E
:104A4000E989FA89EC54FF4F81CFE989FA89E85462
:104A5000FF4FD5CEE989FA89EC55FF4F3FCEE98962
:104A6000FA89E855FF4FCBCE6D857E858F85988975
:104A70006D8B7E8B8F8B988F0C94B51B96E389166C
:104A800091E0990609F441C117E3811611E09106FE
:104A900009F427C138E3831631E0930609F0A3C077
:104AA0004601570140E8B41A81149104A10451E071
:104AB000B50608F082C17501640107E012E030C05C
:104AC00040E0C701B6010E94C006482F50E0809F19
:104AD000F001819FF00D1124E45CFB4F80819181F6
:104AE0008E3F6FEF960718F4029691838083409F64
:104AF0009001419F300D509F300D1124285C3D4F97
:104B0000D701C6019170AA27BB27820F931FDC0132
:104B10008C91811559F0BFEFCB1ADB0AEB0AFB0A27
:104B2000C114D104E104E1E0FE0650F207E012E016
:104B30008C149D04AE04BF0491F50C94071A40E058
:104B4000C501B4010E94C006282F30E0809FF0010B
:104B5000819FF00D1124E45CFB4F808191818E3F99
:104B60004FEF940718F4029691838083B501A40156
:104B7000517066277727209FC001219F900D309F9D
:104B8000900D1124885C9D4F480F591FDA018C91BC
:104B90000E944B12BFEF8B1A9B0AAB0ABB0AC814C8
:104BA000D904EA04FB0458F603CB6D8D7E8D8F8DFE
:104BB00098A1663071058105910509F008CF29CFCC
:104BC0008D890E944B120C94E9198D809E80AF80D4
:104BD000B8844D8D5E8D6F8D78A14D835E836F831C
:104BE00078870C94151AE9E38E16E1E09E0611F021
:104BF0000C94071A8C2D0E944B120C94071A8D8D61
:104C00009E8DAF8DB8A10697A105B10509F0DFCE45
:104C100000CF8D809E80AF80B8848D8D9E8DAF8DAE
:104C2000B8A18D839E83AF83B887EE24EA94FE2CCF
:104C30008701ED8AFE8A0F8B188F0C94151A8D80D0
:104C40009E80AF80B8840D8D1E8D2F8D38A10D8371
:104C50001E832F8338870C94151A8D809E80AF8019
:104C6000B8842D8D3E8D4F8D58A12D833E834F836B
:104C700058874FEF5FEFBA014D8B5E8B6F8B788F4C
:104C80000C94151A07E012E0209FC001219F900D9F
:104C90001124FC01E95CFB4FED88E082825C9B4FB4
:104CA000FF24F394DC01FC9241E0C501B4010E94B1
:104CB000C006809FF001819FF00D1124E85CFD4F3C
:104CC0008D8C8082DF01AA5FBD4FFC92EC5FFD4FAF
:104CD000808191818F3F980711F40C94E9190C940D
:104CE0006A1EC701B6010E949C128D809E80AF8013
:104CF000B884A50194012C5F3F4F4F4F5F4F2D8328
:104D00003E834F8358870C94151AC701B6010E9441
:104D100058138D809E80AF80B884950184010C5F0C
:104D20001F4F2F4F3F4F0D831E832F8338870C94C7
:104D3000151A0E949812811509F472CA0E947E12F7
:104D4000882E912CA12CB12C8D8A9E8AAF8AB88E88
:104D50008D809E80AF80B884CD82DE82EF82F8861F
:104D60000C94151A0E9498128066EACFE989FA8994
:104D7000EC57FF4F80819181A281B381886080834D
:104D80009183A283B383E9A1FAA180819181A28159
:104D9000B381846080839183A283B3838D819E815C
:104DA000AF81B8850496A11DB11DEBA5FCA580833C
:104DB0009183A283B3830C94A61581ED93E00E94A6
:104DC0008512C701B6010E949C128DEC93E00E94EF
:104DD000851271CE9FEF89169906A906B90609F0CA
:104DE00041CB8D809E80AF80B8846D8D7E8D8F8D00
:104DF00098A16D837E838F8398870C94151A7FEF1B
:104E000087169706A706B70609F095CA8D809E807B
:104E1000AF80B8842D8D3E8D4F8D58A12D833E835C
:104E20004F8358871D8A1E8A1F8A188E0C94151A64
:104E30008D899D8D4D815E816F8178854C5F5F4F3F
:104E40006F4F7F4FABA5BCA54D935D936D937C9346
:104E500013978130910511F40C94A61585359807A8
:104E600029F481E094E00E948512FFCF892B11F490
:104E70000C94DC148FEE93E00E9485120C94DC14E9
:104E80008FEF9FEFDC010C94B11BDB018F939F939D
:104E90000E949E27BF91AF91A29F800D911DA39F5D
:104EA000900DB29F900D11240895A1E21A2EAA1B15
:104EB000BB1BFD010DC0AA1FBB1FEE1FFF1FA217CA
:104EC000B307E407F50720F0A21BB30BE40BF50BC7
:104ED000661F771F881F991F1A9469F76095709550
:104EE000809590959B01AC01BD01CF010895052EE1
:104EF00097FB1EF400940E948E2757FD07D00E9456
:104F0000552707FC03D04EF40C948E2750954095FE
:104F1000309521953F4F4F4F5F4F08959095809565
:104F2000709561957F4F8F4F9F4F0895EE0FFF1F34
:104F3000881F8BBF0790F691E02D19940E9461287D
:104F4000A59F900DB49F900DA49F800D911D1124DD
:104F50000895DF93CF931F930F939A9DF02D219F78
:104F6000F00D8B9DF00D8A9DE02DF10D039FF00D4E
:104F7000029FE00DF11D4E9DE00DF11D5E9DF00DB7
:104F80004F9DF00D7F936F93BF92AF925F934F93BE
:104F9000D5010E9461288B01AC01D7010E946128D4
:104FA000EB01E80FF91FD6010E94F8272F913F91DE
:104FB000D6010E946128C60FD71FE81FF91FAF91C5
:104FC000BF910E94F8272F913F910E946128C60F40
:104FD000D71FE81FF91FD6010E946128E60FF71FAF
:104FE0009801BE01CF010F911F91CF91DF910895DC
:104FF0000E946128460F571FC81FD91F08F4319619
:10500000089597FB57FF0C9411289F938F930E944C
:1050100011286E1B7F0BAF91BF918A0B9B0B0895DC
:10502000E894DF93CF93FC01DB010E9461287F931A
:105030006F93E9019A01AC01BF93AF933F932F9314
:10504000DF010E94612826F46C1B7D0B820B930B01
:105050009E01EB01FC010E94F827AF91BF912F91B7
:105060003F910E94F827BE01CF01F9012F913F9196
:10507000CF91DF91089597FD1094002E083098F09D
:105080000850232F342F452F562F672F782F892F25
:10509000912DF4CF159497958795779567955795AA
:1050A0004795379527950A95AAF71124002D08955D
:1050B0002A0D3B1D4C1D5D1D6E1D7F1D801F911F08
:1050C0000895A29FB001B39FC001A39F700D811DE1
:1050D0001124911DB29F700D811D1124911D089501
:1050E0000F931F93CF93DF93869F8001879F100DAF
:1050F000969F100D1124C8010E948C28EC01009786
:1051000029F0A80160E070E00E94C229CE01DF9181
:10511000CF911F910F9108950F931F93CF93DF931A
:105120009C01029710F422E030E0E0915D08F091DC
:105130005E0880E090E0A0E0B0E0309791F4009746
:1051400009F448C0821B930B84309105D0F58A8105
:105150009B816115710581F1FB0193838283FE01BF
:1051600011C0408151810281138142175307D8F049
:105170004217530799F4109761F012960C93129707
:1051800013961C933296CF01DF91CF911F910F910F
:10519000089500935D0810935E08F4CF009751F0D6
:1051A0004817590738F0AC01DB01CA01BD01DF0126
:1051B000F801C3CFEF01F9CF90935E0880935D08AB
:1051C000CECFFE01E80FF91F219331930297998307
:1051D0008883D9CF80915F0890916008892B41F432
:1051E00080910202909103029093600880935F087F
:1051F0008091000290910102009741F48DB79EB713
:105200004091040250910502841B950B40915F0868
:10521000509160084817590708F0B5CF841B950BCB
:105220008217930708F4AFCFB9016E5F7F4F8617DF
:10523000970708F4A8CF640F751F709360086093F8
:105240005F08FA01219331939ECFCF93DF939C01A6
:105250000097D9F0FC01329713821282C0915D0849
:10526000D0915E08209709F058C080819181280F65
:10527000391F80915F08909160088217930709F0A9
:105280006DC0F0936008E0935F08DF91CF910895BF
:10529000AE17BF0708F048C0CD0112960D90BC9123
:1052A000A02D1097A9F7DC011396FC93EE931297AB
:1052B0004D915D919D01240F351FE217F30781F495
:1052C000208131812E5F3F4F240F351FDC01119665
:1052D0003C932E932281338113963C932E93129705
:1052E000E0E0F0E08A819B810097E9F5DE018D9195
:1052F0009D918A0F9B1F20915F08309160082817AD
:10530000390719F6309791F510925E0810925D08F2
:10531000D0936008C0935F08B8CFDE0180E090E0D2
:10532000CE17DF0708F4B8CFB383A2834081518141
:10533000240F351FA217B30771F44E5F5F4F2D91F5
:105340003C911197240F351F3183208312962D91A4
:105350003C9133832283009709F0A5CFF0935E0838
:10536000E0935D0892CFFE01EC01BCCF1382128264
:10537000CFCFFB01DC0102C001900D9241505040A3
:10538000D8F70895DC0101C06D9341505040E0F71B
:105390000895F894FFCFF118C016C016C016C016B5
:1053A000C016C016C016C016C016C016C016E91921
:1053B000C016C016C0166818C016C016C016F81958
:1053C000C016C016C016C016C016C016C016C0162D
:1053D000C016C016C0166919C016C016C016C01671
:1053E000C016C016C016C016C016C016C016761A53
:1053F000C016C016C0166818C016C016C0165F1AB0
:105400007F204A2015203120F41F66209E204A2349
:10541000B924A81BA81BDC231324A81BA81BA81BAA
:10542000A81BA81BA81BA81BA81BA81BA81BA81B64
:10543000A81BA81BA81BA81BA81BA81BA81BA81B54
:10544000A81BA81BA81BA81BA81BA81BA81BA81B44
:10545000A81BA81BA81BA81BA81BA81BA81BA81B34
:10546000A81BA81BA81BA81BA81BA81BA81BA81B24
:10547000A81BA81BA81BA81BA81BA81BA81BA81B14
:10548000A81BA81BA81BA81BA81BA81BA81B38246B
:1054900082235D248224B9232E23D02089220F2346
:1054A000FE22DB1DDB1DDB1DED22DB1DDB1DDB1DFD
:1054B000DC22DB1DDB1DDB1DC922DB1DDB1DDB1D33
:1054C000B720DB1DDB1DDB1DB622DB1DDB1DDB1D5D
:1054D000A3224C22D021B421222202228B21692234
:1054E0000000610820000000000130313233343503
:0C54F0003637383941424344454600003D
:00000001FF
